// SPDX-License-Identifier: MIT
pragma solidity ^0.8.26;

//  To test bitcoin verification we deploy prism with the following constants.
//  prism deployment block #858615 in BTC mainnet.

uint120 constant BLOCK_HEIGHT = 858615;
bytes32 constant BLOCK_HASH = 0x00000000000000000000dd1ee5ffff1b823029ccb49ad30395d085d51f531d03;
uint120 constant BLOCK_TIME = 1724746618;
uint256 constant EXPECTED_TARGET = 0x000000000000000000033d760000000000000000000000000000000000000000;
uint120 constant PREV_BLOCK_TIME = 1724746618 - 1272;

// The transaction to be verified is TX #f1051a6d34f90d86f11587773334c29811634c4027fcf8e979da9a652ba29cfb

bytes constant BLOCK_HEADER =
    hex"0000fc2ad11d24df427f64f0247bf960258fe2f5e13576dc56ca000000000000000000005ba9740466fb42e86b282a8c7963db417229ae45a8e6b47740a1fb949ca376787a8bcd66763d0317623a9313";
bytes constant PREV_BLOCK_HEADER =
    hex"00e09a26e46a838ffed463b18aa8eb909b2f2d8d6af365e92c7001000000000000000000afb532eaca3968dbdf95be79b2d2605c73e07de91991ff0ef083baf821c29a9d8286cd66763d03178f94f4a4";
bytes32 constant TX_ID = hex"f1051a6d34f90d86f11587773334c29811634c4027fcf8e979da9a652ba29cfb";
uint256 constant TX_INDEX = 604;
bytes constant TX_MERKLE_PROOF =
    hex"27c1204045b7b4a58e1ba5beb8846cd550cf49ab0d77c18a99a8f542913a1890e055d3a47f147fac6df3b85b7cf82e5230d65d6dc22816de9b977b8cb2df684e01c0974f3097b27e1014824f750e5e9f0f7a2b01b2aa5b1e51b62306f2861e45903633a6206f5762fe362d00d5bf3d809082779648bb4db26aa2cb8938977ed3b88730e6d56563fc6dd3a3cd0854b375cb3592b3ce1df6db15badb1206bc87743ef1942fc274cb2c0ec699cdeb47706657b7e03ea8144ae3e3c44b163a5923c25b15ceaa521b82fbcfb1dd11edbb6be4654943491dfe35458af8a07fc37e639bcaa8d557783144e8687ce83660bf6e60672ab7504ed1d04af9d2519ceec66a233d165e7e4bcf3efd7dbc879dff65e5b4fa821ff3d727087ccf725786e9f264eb9d585a6e3c1c0db2a35232cf908f92c06a3a77dd7b42a76d08006a0587e5cc91fe0fb7e537e785016d125dccd0a75bdfdde7ae8794518ceb317c9194399570cf2da9ba5e8efe32ecb9a7045ae4b0f9a7e73430619569ed7c7fd8c862d5f8e5b5";
bytes constant RAW_TX =
    hex"010000000233111d5e2595ae244b24b07cc86332b1070f7bbe53404c7946cffcb7d6ed21d60000000000ffffffff98c57ddc512930107dc81e045adb90c9daeff817a27667976f63f999c986e50f0100000000ffffffff01af970800000000001976a91493ab15e523955f293df3a68029ec41e6b1ca179088ac00000000";
uint256 constant SATS_AMOUNT = 563_119;
uint256 constant TX_OUTPUT_INDEX = 0;

bytes1 constant UTXO_TYPE = 0x01; //the TX was P2PKH
bytes20 constant PHASH = bytes20(0x93AB15e523955F293Df3A68029eC41E6b1ca1790);

//Next block to test verification after subimssion
uint256 constant NEXT_BLOCK_HEIGHT = 858616;
bytes constant NEXT_BLOCK_HEADER =
    hex"00000036031d531fd585d09503d39ab4cc2930821bffffe51edd00000000000000000000248874d648ad0fc9b9ddb3b6110ea45b70fb89117c016efdf948acf51b3ebd74d29bcd66763d03178e77291f";
bytes32 constant NEXT_TX_ID = hex"0ba0835aabf1b7826c229aa806f7a6718fee98f08bfb4f32a5c04f04925ca64d";
uint256 constant NEXT_TX_INDEX = 236;
bytes constant NEXT_TX_MERKLE_PROOF =
    hex"c73ed2dc68252751c0ac63862b243df96426025bc61c2c8e9cbaf1ebabe8dc06ca0c3158a5cc75cfd518b738bd7023ee2cf47bd97952dcc89158e8246fd92dc4741b6455b5f0e56f1360cac848a391d99c88fba298a405d8695ecfafd782ae25df9f48f20908b93e62d8dbb1124b59ed6fefc63ab1e92b4655ed71a03647464b33b3e1b5afe77581cf7af38ab7b76610b0b8d826509fec22d86d76a43241885a9c03fc1687054b9a315fe30e414b022720b1db4b04f4d4adf333cbeb41212ea3d3d87118bf508cbceadda320ef69cb821d3d4d593ddedaf642bc8fc2d405c3315da640bb5e3f8ee929d4d54916ea809dfb02f4f3e790c61369f9396a5071c0e4d5b2efd7c4f5a4b5b4f81678bf47991dc47da363738c8f299bfa09efd347f7dd21345b8efb33e9d5b5b87936f029c6701efab6a97a5557a4d11bc96ebcaf127ad17262f75bb8ee4eae536cfbbba527eb60d51bdaa213727f635db180a9e3fb10d90440ad2b6f9322a5e16acadea188fb90fc5267fbe4265c70e48e76028bc9eb";
bytes constant NEXT_RAW_TX =
    hex"02000000017ecd4a415f188a20d3fc4449244e25e956cdd4d63e3d172b8e82b1d532c390d4000000006a47304402207bede97100f2975608dac1aa330bd7b294292d8981756ff64ce754d6752e6da702207be6fb955c384f3c1c486fa1564f3f015d8228a9a40400356f0bcc16797b074601210323b27b4b27aa4a03d7f0e34fada648891d2122a6fd8d84b62964c941d2ba42c1fdffffff01c3510e00000000001600147a8a21aa30c3dd51e071dc7b7c39024fa7b9428f00000000";
uint256 constant NEXT_SATS_AMOUNT = 938_435;
uint256 constant NEXT_TX_OUTPUT_INDEX = 0;
bytes20 constant NEXT_PHASH = bytes20(0x7A8A21aA30c3dD51E071dc7B7C39024fA7b9428F);
uint120 constant NEXT_BLOCK_TIME = 1724750802;
bytes1 constant NEXT_UTXO_TYPE = 0x03; //the TX was P2WPKH

// Transaction in block

bytes32 constant EMBED_TX_ID = hex"ab0c02d14dee6f5fcbb19bcc2ac932ab661773a42ded8f2ff046bd90140d815c";
uint256 constant EMBED_TX_INDEX = 1;
bytes constant EMBED_TX_MERKLE_PROOF =
    hex"1b13e0b8d6dfa35ccf05ff6f34b61aeacb0745812d338c5b0de4624fdfdd3a36fc1ff963c77436c718fd6ee991b859a943806c2a1e5dc3b5d398e1ade199e339759e74795c792c0be85bc561dac943c636673e6a2278b315d96cfab0a4c80dcea2228479b616295ba705339107bad9b718285802be96050233528521eeca10c821dfc10b04b540c9385707c22398fa22eb921991f06855d33a58b6a74f8d5dedd2d8f8590da94f3104d75084e64b8529975843252c87fffc4876346cf9755cbbdabb5df63e6d03fee405b8838023236ae2f3c8383d45f620ff54aab121df269da0149e7690ec04d75a06eef7575bbc41eec8b5872b3f5aa63d27d8ccc945c76b6341921ead662c24ef077a6910ad0309ef679d5f4301ed3aae22e7cf4aa8ffac06359d687d35b7e7540aa4f7d55ca22c15e01aa6c821b13a6bae807902f87060fe0fb7e537e785016d125dccd0a75bdfdde7ae8794518ceb317c9194399570cf2da9ba5e8efe32ecb9a7045ae4b0f9a7e73430619569ed7c7fd8c862d5f8e5b5";
bytes constant EMBED_RAW_TX =
    hex"01000000012432b1e670e82ef53ecf6537a399bedd34aca308dcce8691fcd206bdaf8ea352000000006a473044022076e0d5dbf0975fce8c4dde30b4b99609554de10a149428b11310fe34f45685fe02206ba0e127a1456360696894a44608181af2dc0c514809e112d4445e9530c2145f01210323e9387e8ac1b53544fa92c00ced4ad5e2948e49b270eb32d1ea86bf6d6bc0cbffffffff0216e20200000000001976a91496ce690e9cb096ca302559821254e941badd203388ac0000000000000000226a20ae5a5e587e6a4abeced9fc32bc333c0a52b1cf271f5dd306ef2f5ce29dc0555d00000000";
bytes constant EMBEDDED_DATA_RETURN = hex"ae5a5e587e6a4abeced9fc32bc333c0a52b1cf271f5dd306ef2f5ce29dc0555d";
bytes constant EMBEDDED_DATA_OP_RETURN_SCRIPT =
    hex"6a20ae5a5e587e6a4abeced9fc32bc333c0a52b1cf271f5dd306ef2f5ce29dc0555d";

uint256 constant EMBED_SATS_AMOUNT = 188_950;
uint256 constant EMBED_TX_OUTPUT_INDEX = 0;

bytes1 constant EMBED_UTXO_TYPE = 0x01; //the TX was P2PKH
bytes20 constant EMBED_PHASH = bytes20(0x96CE690E9cb096Ca302559821254e941bADD2033);
